:08048800543A004144433A00DC
:10016C00202008000000000000000000000000003B
:10017C000000000000000000000000000000000073
:10018C0000000020202800000000000000000000FB
:10019C000000000000000000000000000000000053
:0601AC000000000000004D
:1002250012047F1202757BFF7A047988E4FDFF12C0
:1002350003837BFF7A04798BE4FD7F091203831224
:1002450002C1755F007560007561287B007A0079D1
:100255000812008F7B007A007908E4FD7F02120303
:10026500837B007A007928E4FD7F0D12038380CF1C
:1001B2000548344310100105523443101001054D17
:0C01C20043431010010557434310100187
:09047F00D294C2B4C297D2B32298
:1003C500E4FEEF339295EF25E0FFD297A296E43352
:0803D5004207C2970EBE08EAC0
:0103DD0022FD
:0403AB008F638D646B
:1003AF00C294120474AF631203C5AD07AF64120396
:0503BF00C5D294AF055A
:0103C4002216
:0203DE008F632B
:1003E000C2947F017E001203F6AF631203C5E4FFDF
:0503F0001203C5D294C8
:0103F50022E5
:0B030A007B007A0079527560057F2AA5
:080315008F5C8B5D8A5E895F3D
:10031D00C294120474AF5C1203C5AD07E4FCECC3C8
:10032D0095605015AB5DAA5EA95F8C827583001236
:0D033D00011DFF1203C50C80E5D294AF0531
:01034A002290
:08034B008F638B648A658966EB
:10035300C294120474AF631203C5AD07E4FCECC38B
:1003630095675017E4FF1203C5AB64AA65A9668CB1
:0F03730082758300EF12014A0C80E3D294AF052C
:010382002258
:1002C100C2B412030A7B007A0079577560057F2B4F
:1002D1001203157D037F211203AB7D037F221203DD
:1002E100AB7D287F251203AB7D207F311203AB7DCF
:1002F100207F321203AB7D077F261203AB7D0F7F78
:09030100201203ABD2B402047413
:1001CF008B688A69896AC2B47B007A00795275603C
:1001DF00057F3012031512030AAB68AA69A96A7565
:1001EF0060207FA01203157D017F211203AB7D01DB
:1001FF007F221203AB7D1A7F241203AB7D287F254C
:10020F001203AB7D077F261203AB7D0E7F201203F7
:06021F00ABD2B40204742E
:06008F008B5C8A5D895EB6
:1000950020B3FD7F071203DE8F62E56230E65D5413
:1000A5000EC313702BC2B4AB5CAA5DA95E75672045
:1000B5007F6112034BAD627F271203ABC2947FE2CF
:1000C5001203C5D294D2B37F017E001203F6802CB1
:1000D500E562540EC31364017022C2B4AB5FAA601B
:1000E500A9617567207F6112034BAD627F271203FB
:0E00F500ABC2947FE21203C5D294D2B3D2B351
:0101030022D9
:10045000EF1FAC0670011E4C60070000000000801A
:02046000EF2289
:1003F600AB07AA06EB1BAE0270011A4E60097FE836
:080406007E0312045080ED2278
:0A04740000007F217E42DEFEDFFC67
:01047E00225B
:100462007580FFC2A0D2A1D292AF80C292EF20E7E4
:01047200F693
:010473002266
:10040E00AE07120462C2A0C2A18E807F047E0012CB
:07041E0003F6D292C2922204
:10042500AE07120462D2A0C2A18E807F047E0012A4
:0704350003F6D292C29222ED
:100275007F3812040E7F057E001203F67F381204C4
:100285000E7F057E001203F67F3812040E7F057E71
:10029500001203F61204627F3812040E1204627F04
:1002A5000812040E1204627F0112040E1204627F0A
:0C02B5000612040E1204627F0C02040EFC
:10043C00ED70048F5C8005EF2440F55CE55C448036
:04044C00FF02040E99
:100383008B6B8A6C896D12043CAB6BAA6CA96D12E2
:1003930001046013056DE56D7002056C14F912011B
:0703A30004FF12042580E2B3
:0103AA002230
:03000000020003F8
:0C000300787FE4F6D8FD75816D02004A9C
:10010400BB010689828A83E0225002E722BBFE02F9
:09011400E32289828A83E493222C
:10011D00BB010CE58229F582E5833AF583E0225097
:10012D0006E92582F8E622BBFE06E92582F8E222E1
:0D013D00E58229F582E5833AF583E49322FB
:10014A00F8BB010DE58229F582E5833AF583E8F0EB
:10015A00225006E92582C8F622BBFE05E92582C897
:02016A00F2227F
:10000F00020225E493A3F8E493A34003F68001F2E0
:10001F0008DFF48029E493A3F85407240CC8C333F2
:10002F00C4540F4420C8834004F456800146F6DFC1
:10003F00E4800B010204081020408090016CE47EE4
:10004F00019360BCA3FF543F30E509541FFEE493B6
:10005F00A360010ECF54C025E060A840B8E493A37D
:10006F00FAE493A3F8E493A3C8C582C8CAC583CAA8
:10007F00F0A3C8C582C8CAC583CADFE9DEE780BE60
:0101CE000030
:00000001FF
