:0F0A0500543A0025642E2564006572726F7200EA
:1004D600D2AF120A3512067212098D1209A37BFFDA
:1004E6007A0A7905E4FDFF120866300AFDC20A7B26
:1004F600007A00792612073B9209300956E527AEA5
:10050600267804CEA2E713CE13D8F8F5258E2475E7
:100516002200E527540FF523AE22FF7C037DE81267
:1005260003D27C007D101203E48E228F23750BFF0D
:10053600750C0A750D0885240E85250F85221085F4
:1005460023117B007A00792812006A7B007A0079F1
:100556002880067BFF7A0A790EE4FD7F0212086680
:100566007B007A007928E4FD7F021208667B007A18
:1005760000792812061412083DEF70FA1209A30238
:0205860004F07F
:1008FD00C2AFC2B5120A2BD2B5120A14A2B592011B
:08090D0030B5FDD2AFA201B329
:0109150022BF
:1009A3001208FD920030000A7FCC1208117F441216
:0409B3000811A20085
:0109B700221D
:020811008F0C4A
:10081300C2AF750D01E50D601EC2B5120A3EE50DAE
:10082300550C7004C2B58002D2B5120A14D2B5E5D4
:090833000D25E0F50D80DED2AFC9
:01083C002299
:1007E200C2AF750C01E50C6021C2B5120A3ED2B54A
:1007F200120A3EE50C20B505F4520D8002420D129C
:0E0802000A14E50C25E0F50C80DBD2AFAF0D3B
:0108100022C5
:06073B008B088A09890AFF
:100741001208FD92003000277FCC1208117FBE12E3
:1007510008111207E28F0B1207E2EFFE7C00E4257D
:100761000BFFEC3EAB08AA09A90A8FF012041AA2EA
:010771000087
:010772002264
:1009E100EF1FAC0670011E4C600700000000008084
:0209F100EF22F3
:10092F00AB07AA06EB1BAE0270011A4E60097FE8F7
:08093F007E031209E180ED22A4
:040A3E007F0EDFFE4A
:010A42002291
:0600030000007F50DFFE4B
:0100090022D4
:0B0A14000000007F027EECDEFEDFFC35
:010A1F0022B4
:090A2B00007F117E1FDEFEDFFCDE
:010A3400229F
:0A0A200000007F217E42DEFEDFFCB5
:010A2A0022A9
:0E09B800052E34431010010533344310100196
:090A3500D294C2B4C297D2B322DC
:10091600E4FEEF339295EF25E0FFD297A296E433FB
:080926004207C2970EBE08EA69
:01092E0022A6
:0608DD00C2B47D0D7F2076
:0408E3008F0B8D0CDE
:1008E700C294120A20AF0B120916AD07AF0C1209FA
:0508F70016D294AF05CC
:0108FC0022D9
:020947008F0817
:10094900C2947F017E0012092FAF08120916E4FF35
:05095900120916D29402
:01095E002276
:0B06BE007B007A007933750F057F2A5E
:0806C9008F0B8B0C8A0D890ECA
:1006D100C294120A20AF0B120916AD07E4FCECC359
:1006E100950F5015AB0CAA0DA90E8C8275830012C3
:0D06F1000383FF1209160C80E5D294AF05BB
:0106FE0022D9
:080773008F388B398A3A893B6B
:10077B00C294120A20AF38120916AD07E4FCECC381
:10078B00953C5017E4FF120916AB39AA3AA93B8CDA
:0F079B0082758300EF1203B00C80E3D294AF0598
:0107AA00222C
:1006FF001208DDD2B4120003C2B41206BE7D017F10
:10070F00211208E37D017F221208E37D287F251245
:10071F0008E37D207F311208E37D077F261208E36F
:0C072F007D0F7F201208E3D2B4020A20E4
:100614008B088A09890A1208DDD2B4120003C2B415
:100624007B007A007933750F057F301206C91206F4
:10063400BEAB08AA09A90A750F207FA01206C97DBE
:10064400017F211208E37D017F221208E37D1F7FD1
:10065400241208E37D287F251208E37D077F2612F4
:0E06640008E37D0E7F201208E3D2B4020A20C4
:10083D0020B3FD7F07120947AD07ED20E50330E436
:10084D00137F271208E3C2947FE1120916D294D2C6
:08085D00B37F0022D2B37F013A
:010865002270
:0607AB008B1C8A1D891E53
:1007B1007F071209478F1FE51F30E622C2B4AB1C29
:1007C100AA1DA91E753C207F61120773AD1F7F27EB
:1007D1001208E3C2947FE2120916D294D2B3D2B3C3
:0107E10022F5
:1009F3007580FFC2A0D2A1D292AF80C292EF20E74E
:010A0300F6FC
:010A040022CF
:10095F00AE071209F3C2A0C2A18E807F047E0012DF
:07096F00092FD292C292226F
:10097600AE071209F3D2A0C2A18E807F047E0012B8
:07098600092FD292C2922258
:100672007F3812095F7F057E0012092F7F38120929
:100682005F7F057E0012092F7F3812095F7F057E8A
:100692000012092F1209F37F3812095F1209F37F42
:1006A2000812095F1209F37F0112095F1209F37F31
:0C06B2000612095F1209F37F0C02095FB9
:1009CD00ED70048F088005EF2440F508E50844809C
:0409DD00FF02095FAD
:100866008B3D8A3E893F1209CDAB3DAA3EA93F1278
:10087600036A6013053FE53F7002053E14F9120353
:070886006AFF12097680E20F
:01088D002248
:0609C600C10A024000001E
:10098D00438E805389F0438901758A66758C7EC2CA
:06099D008DD2A9D28C22CC
:03000B0002088E5A
:04088E00C0E0C0D036
:10089200758A66758C7E0541E54170020540C394F8
:0F08A200E8E54094034008754000754100D20A14
:0508B100D0D0D0E032C0
:030000000205886E
:0C058800787FE4F6D8FD7581410205CFB4
:10036A00BB010689828A83E0225002E722BBFE0291
:09037A00E32289828A83E49322C4
:10038300BB010CE58229F582E5833AF583E022502F
:1003930006E92582F8E622BBFE06E92582F8E22279
:0D03A300E58229F582E5833AF583E4932293
:1003B000F8BB010DE58229F582E5833AF583E8F083
:1003C000225006E92582C8F622BBFE05E92582C82F
:0203D000F22217
:1003D200EF8DF0A4A8F0CF8CF0A428CE8DF0A42E3F
:0203E200FE22F9
:1003E400C2D5EC30E709B2D5E4C39DFDE49CFCEE34
:1003F40030E715B2D5E4C39FFFE49EFE12044BC35D
:10040400E49DFDE49CFC800312044B30D507C3E457
:060414009FFFE49EFE22A2
:10041A00BB010A89828A83F0E5F0A3F0225006F72D
:0F042A0009A7F01922BBFE06F3E5F009F319222A
:10000E00E517240BF8E60517227808300702780B5F
:10001E00E475F0011204A002036A2000EB7F2ED2D9
:10002E00008018EF540F2490D43440D4FF30040BCA
:10003E00EF24BFB41A0050032461FFE518600215C7
:10004E0018051BE51B7002051A30070D7808E475BC
:10005E00F0011204A0EF0204390208B67403D207AD
:10006E008003E4C207F5178B088A09890AE4F5189C
:10007E00F51AF51BE51860077F2012004980F5750B
:10008E0019FFC201C200C202C203C205C206C208E3
:10009E00120017FF700D3007057F0012005AAF1BBC
:1000AE00AE1A22B4255FC2D5C204120017FF24D0A7
:1000BE00B40A00501A75F00A781830D50508B6FF44
:1000CE000106C6A426F620D5047002D20380D924D8
:1000DE00CFB41A00EF5004C2E5D20402025AD20184
:1000EE0080C6D20080C0D20280BCD2D580BAD205E2
:1000FE0080B47F201200492002077401B518004019
:10010E00F112000EFF120049020082D208D20680C0
:10011E009512000EFB12000EFA12000EF94A4B70E9
:10012E0006792B7A037BFF20022EE518602A7E00CB
:10013E008E8275830012038360060EEE651970F0D1
:10014E00C2D5EBC0E0EAC0E0E9C0E0EE1202A1D0F9
:10015E00E0F9D0E0FAD0E0FB12036AFF60AAEBC030
:10016E00E0EAC0E0E9C0E0120049D0E02401F9D095
:10017E00E03400FAD0E0FBE5190460DCD519D98033
:10018E00877BFF7A02799DD202809C79108002795A
:10019E0008C206C2088008D2D5790A8004790AC23C
:1001AE00D5E519047002F519E4FAFDFEFF12000EF2
:1001BE00FC7B0820011312000EFD7B1030000A128A
:1001CE00000EFE12000EFF7B20EC3382D592D5502E
:1001DE0013C3E43000069FFFE49EFEE42001039D5E
:1001EE00FDE49CFCE4CBF8C201EC700CCFCECDCC80
:1001FE00E824F8F870F38017C3EF33FFEE33FEED0B
:10020E0033FDEC33FCEB33FB994002FB0FD8E9EBEB
:10021E00300105F8D0E0C448B201C0E00AEC4D4E02
:10022E004F78207B0070C2EAB5190040BCC0E012C6
:10023E0002A3D0F0D0E0200104C4C0E0C4B201C0DB
:10024E00F0120032D0F0D5F0EB0200821204B001B1
:10025E001F5301995800F04C00EC42019D4F01A52F
:0F026E004401A54901054301AB55018F46018F9E
:10027D0045018F47034B5000F42D00F82E011B2B29
:10028D0000FC2301192003342A00B4480000011397
:10029D003F3F3F00790AA2D5200314300509B9105C
:1002AD00020404B9080104A2D5200602500104205D
:1002BD0002689202B518005034C0E07F2030031957
:1002CD007F30A20272067205500F1202FAC202C2EC
:1002DD0006C205C2087F30800F300503E9C0E01269
:1002ED000049300503D0E0F9D0E0B518CC30051742
:1002FD007F30B9100C1200497F583004077F788089
:10030D0003B908031200493002057F2D0200497F11
:10031D00202008F87F2B2006F322920280CF286E32
:10032D00756C6C2900D20112000E3001F8C20178F3
:10033D001830D50108F60200B42D5043495812006B
:10034D000E2403B405004001E49003469312003AD5
:0D035D00743A12003AD20375180402019997
:100594000204D6E493A3F8E493A34003F68001F2A3
:1005A40008DFF48029E493A3F85407240CC8C33368
:1005B400C4540F4420C8834004F456800146F6DF37
:1005C400E4800B01020408102040809009B8E47E06
:1005D400019360BCA3FF543F30E509541FFEE4932C
:1005E400A360010ECF54C025E060A840B8E493A3F3
:1005F400FAE493A3F8E493A3C8C582C8CAC583CA1E
:10060400F0A3C8C582C8CAC583CADFE9DEE780BED5
:0109CC00002A
:10043900BB010689828A83F0225002F722BBFE01A2
:02044900F3229C
:10044B00BC000BBE0029EF8DF084FFADF022E4CC95
:10045B00F875F008EF2FFFEE33FEEC33FCEE9DEC5E
:10046B00984005FCEE9DFE0FD5F0E9E4CEFD22EDA4
:10047B00F8F5F0EE8420D21CFEADF075F008EF2FEE
:10048B00FFED33FD4007985006D5F0F222C398FDDF
:05049B000FD5F0EA227C
:1004A000FAE6FB0808E6F925F0F618E6CA3AF6225D
:1004B000D083D082F8E4937012740193700DA3A3DB
:1004C00093F8740193F5828883E4737402936860EF
:0604D000EFA3A3A380DFEF
:1008B600EFB40A07740D1208C1740A309811A8998A
:1008C600B8130CC2983098FDA899C298B811F630A2
:0708D60099FDC299F599227A
:00000001FF
