:0504B8004144433A003D
:05045400830000000020
:1002FA001204A81201B212048C7BFF7A0479B8E4C2
:10030A00FDFF1202C31203597BFE7A007900E4FD55
:10031A007F041202C37BFE7A00790012008F120357
:06032A0030EF60E180F8F5
:100468007580FFC2A0D2A1D292AF80C292EF20E7DE
:01047800F68D
:010479002260
:1003DD00AE07120468C2A0C2A1AF068F807F047E53
:0903ED0000120427D292C29222F0
:1003F600AE07120468D2A0C2A1AF068F807F047E2A
:0904060000120427D292C29222D6
:1001B2007F381203DD7F057E001204277F38120389
:1001C200DD7F057E001204277F381203DD7F057E66
:1001D200001204271204687F381203DD1204687FBC
:1001E200081203DD1204687F011203DD1204687F26
:0C01F200061203DD1204687F0C0203DD1E
:10040F00ED70067819EFF28006EF24407819F27834
:08041F0019E24480FF0203DD35
:1002C3007803EBF208EAF208E9F212040F7803E28A
:1002D300FB08E2FA08E2F91200F9601A7803E2FB7C
:1002E3000808E2F92401F218E2FA3400F21200F9E4
:0602F300FF1203F680D7A4
:0102F90022E2
:10048C00759D01E4F5BD75BC88F5A27F01FE0204E3
:01049C007AE5
:10043F0075BC887F017E0012047AE5BC30E4FB5363
:04044F00BCEFAFBD92
:010453002286
:1003590012043FEF75F0648424307800F2EF75F0F1
:100369006484E5F075F00A84243008F2EF75F00A28
:0703790084E5F0243008F2D6
:01038000225A
:10047A00EF1FAC0670011E4C6007000000000080F0
:02048A00EF225F
:10042700AB07AA06EB1BAE0270011A4E60097FE804
:080437007E0312047A80ED221D
:0604B10000007F50DFFE99
:0104B7002222
:0A049D0000007F217E42DEFEDFFC3E
:0104A7002232
:0E045900850F4343101001851443431010011A
:0904A800D294C2B4C297D2B3226F
:1003C300E4FEEF339295EF25E0FFD297A296E43354
:0903D3004FFFC2970EEEB408E9D9
:0103DC0022FE
:06038100C2B47D0D7F20D7
:07038700781CEFF208EDF213
:10038E00C29412049D781CE2FF1203C3AD0708E26B
:08039E00FF1203C3D294AF0566
:0103A6002234
:0403A7007819EFF2E0
:1003AB00C2947F017E001204277819E2FF1203C367
:0703BB00E4FF1203C3D2941A
:0103C2002218
:0D0161007BFE7A00791478207405F27F2A65
:0D016E00781CEFF208EBF208EAF208E9F263
:10017B00C29412049D781CE2FF1203C3AD07E4FC8A
:10018B007820E2FFECC39F5019781DE2FB08E2FADE
:10019B0008E2F98C82758300120112FF1203C30C63
:0601AB0080DED294AF05D6
:0101B100222B
:0D01FE007806EFF208EBF208EAF208E9F2E9
:10020B00C29412049D7806E2FF1203C3AD07E4FC0F
:10021B00780AE2FFECC39F501BE4FF1203C378077D
:10022B00E2FB08E2FA08E2F98C82758300EF120117
:08023B003F0C80DCD294AF05FA
:010243002298
:10028700120381D2B41204B1C2B41201617D017F9D
:10029700211203877D017F221203877D287F251284
:1002A70003877D207F311203877D077F261203870F
:0C02B7007D0F7F20120387D2B402049D4B
:10008F007819EBF208EAF208E9F2120381D2B412FE
:10009F0004B1C2B47BFE7A00791478207405F27F24
:1000AF003012016E1201617819E2FB08E2FA08E2E0
:1000BF00F978207420F27FA012016E7D017F21124A
:1000CF0003877D017F221203877D1F7F2412038701
:1000DF007D287F251203877D077F261203877D0EDC
:0A00EF007F20120387D2B402049DA3
:1003300020B3FD7F071203A7EF20E50330E415ADDE
:10034000077F27120387C2947FE11203C3D294D29E
:08035000B37F0022D2B37F014C
:010358002282
:0A024400780BEBF208EAF208E9F289
:10024E007F071203A7780EEFF230E62AC2B4780BBE
:10025E00E2FB08E2FA08E2F9780A7420F27F6112F2
:10026E0001FE780EE2FD7F27120387C2947FE21211
:08027E0003C3D294D2B3D2B342
:010286002255
:03000000020003F8
:0C000300787FE4F6D8FD75810702004A02
:1000F900BB010689828A83E0225002E722BBFE0205
:09010900E32289828A83E4932237
:10011200BB010CE58229F582E5833AF583E02250A2
:1001220006E92582F8E622BBFE06E92582F8E222EC
:0D013200E58229F582E5833AF583E4932206
:10013F00F8BB010DE58229F582E5833AF583E8F0F6
:10014F00225006E92582C8F622BBFE05E92582C8A2
:02015F00F2228A
:10000F000202FAE493A3F8E493A34003F68001F20B
:10001F0008DFF48029E493A3F85407240CC8C333F2
:10002F00C4540F4420C8834004F456800146F6DFC1
:10003F00E4800B0102040810204080900454E47EF9
:10004F00019360BCA3FF543F30E509541FFEE493B6
:10005F00A360010ECF54C025E060A840B8E493A37D
:10006F00FAE493A3F8E493A3C8C582C8CAC583CAA8
:10007F00F0A3C8C582C8CAC583CADFE9DEE780BE60
:010467000094
:00000001FF
